:100000000C945D000C9485000C9485000C94850084
:100010000C9485000C9485000C9485000C9485004C
:100020000C9485000C9485000C9485000C9485003C
:100030000C9485000C9485000C9485000C9485002C
:100040000C941B040C9485000C948B040C94650494
:100050000C9485000C9485000C9485000C9485000C
:100060000C9485000C94850000000008000201003B
:100070000003040700000000000000000000000072
:10008000250028002B0000000000240027002A0083
:10009000040404040404040402020202020203032E
:1000A0000303030301020408102040800102040836
:1000B0001020010204081020BD0411241FBECFEF40
:1000C000D8E0DEBFCDBF11E0A0E0B1E0E6EEFDE09C
:1000D00002C005900D92A034B107D9F722E0A0E448
:1000E000B1E001C01D92A430B207E1F710E0CDE508
:1000F000D0E004C02197FE010E94E606CC35D1076E
:10010000C9F70E9407050C94F1060C94000090E0DA
:10011000FC01EC55FF4F2491FC01E057FF4F849107
:10012000882399F090E0880F991FFC01EA57FF4F50
:10013000A591B491FC01E458FF4F859194918FB73C
:10014000F894EC91E22BEC938FBF089590E0FC01C2
:10015000E859FF4F2491FC01EC55FF4F3491FC010D
:10016000E057FF4FE491EE2309F43CC0222339F11C
:10017000233091F038F42130A9F0223001F584B514
:100180008F7D12C0273091F02830A1F02430B9F4CF
:10019000809180008F7D03C0809180008F77809355
:1001A00080000DC084B58F7784BD09C08091B000F8
:1001B0008F7703C08091B0008F7D8093B000F0E016
:1001C000EE0FFF1FE458FF4FA591B4919FB7F8942D
:1001D000611104C08C913095382302C0EC913E2B04
:1001E0003C939FBF08958E3008F08E5087708064D6
:1001F00080937C0080917A00806480937A00809163
:100200007A0086FDFCCF809178002091790090E003
:10021000922B08953FB7F89480914B0190914C0137
:10022000A0914D01B0914E0126B5A89B05C02F3F6E
:1002300019F00196A11DB11D3FBFBA2FA92F982F0C
:100240008827820F911DA11DB11DBC01CD0142E087
:10025000660F771F881F991F4A95D1F70895CF928F
:10026000DF92EF92FF920F931F93CF93DF936C0176
:100270007A018B01C0E0D0E0CE15DF0581F0D80116
:100280006D918D01D601ED91FC910190F081E02DF1
:10029000C6010995892B11F02196EECF7E01C70189
:1002A000DF91CF911F910F91FF90EF90DF90CF9052
:1002B0000895FC01538D448D252F30E0842F90E06C
:1002C000821B930B541710F0CF9608950197089551
:1002D000FC01918D828D981761F0828DDF01A80F4E
:1002E000B11D5D968C91928D9F5F9F73928F90E070
:1002F00008958FEF9FEF0895FC01918D828D9817DF
:1003000031F0828DE80FF11D858D90E008958FEF1B
:100310009FEF0895FC01918D228D892F90E0805CE4
:100320009F4F821B91098F73992708958FE491E065
:100330000E948A0121E0892B09F420E0822F089590
:10034000FC01848DDF01A80FB11DA35ABF4F2C9172
:10035000848D90E001968F739927848FA689B78941
:100360002C93A089B1898C91837080648C93938D38
:10037000848D981306C00288F389E02D80818F7DDB
:1003800080830895EF92FF920F931F93CF93DF9393
:10039000EC0181E0888F9B8D8C8D981305C0E889D6
:1003A000F989808185FD26C0F62E0B8D10E00F5F48
:1003B0001F4F0F731127E02E8C8DE8120CC00FB663
:1003C00007FCFACFE889F989808185FFF5CFCE0156
:1003D0000E94A001F1CF8B8DFE01E80FF11DE35AC1
:1003E000FF4FF0829FB7F8940B8FEA89FB898081D9
:1003F00080620AC09FB7F894EE89FF896083E8891C
:10040000F98980818370806480839FBF81E090E060
:10041000DF91CF911F910F91FF90EF900895CF93AF
:10042000DF93EC01888D8823C9F0EA89FB898081FC
:1004300085FD05C0A889B9898C9186FD0FC00FB6CE
:1004400007FCF5CF808185FFF2CFA889B9898C910F
:1004500085FFEDCFCE010E94A001E7CFDF91CF91C4
:10046000089580E090E0892B29F00E949601811187
:100470000C9400000895CF93DF93EC0160E08E812F
:100480000E94A60061E08E810E94A60060E08E813D
:100490000E94A6008BE891E00197F1F7DF91CF91E0
:1004A0000895CF92DF92EF92FF920F931F93CF9315
:1004B000DF936C017C0187E0E80EF11CC0E0D0E026
:1004C000062F10E0B8010C2E02C0759567950A94AE
:1004D000E2F76170F70181917F010E94A6002196E9
:1004E000C430D10579F7C601DF91CF911F910F91EB
:1004F000FF90EF90DF90CF900C943B02CF92DF9271
:10050000EF92FF920F931F93CF93DF93EC01F62EA0
:10051000642F8C810E94A6008D818F3F19F060E0CE
:100520000E94A6008F850F2D10E084FF25C06E016C
:1005300087E0C80ED11CE12CF12CB8010E2C02C0B2
:10054000759567950A94E2F76170F60181916F01E4
:100550000E94A600FFEFEF1AFF0A88E0E816F104F8
:1005600061F7CE01DF91CF911F910F91FF90EF9036
:10057000DF90CF900C943B02B80184E075956795AD
:100580008A95E1F7CE010E9451026F2DCE01DF91D5
:10059000CF911F910F91FF90EF90DF90CF900C942F
:1005A000510240E0682F8CEE91E00C947E02CF93D4
:1005B000DF93823028F09091FB0198609093FB01CB
:1005C0008093FF011092000280E48093010280E199
:1005D0008093020280E5809303028091F0010E94E3
:1005E00087008091F1018F3F11F00E948700809178
:1005F000F2010E948700CCEED1E09E012C5E3140DA
:100600008091FB0184FD03C084E090E002C088E09B
:1006100090E021962817390724F48E810E948700E4
:10062000ECCF8BE39DE00197F1F760E08091F00162
:100630000E94A60060E08091F2010E94A6008091D5
:10064000F1018F3F19F060E00E94A6008091FB014C
:1006500084FD20C063E08CEE91E00E945102CBE467
:10066000D6E4CE010197F1F763E08CEE91E00E94B1
:1006700051022197F1F763E08CEE91E00E94510264
:1006800083E592E00197F1F762E08CEE91E00E9441
:10069000510215C080620E94D1028BE496E401975A
:1006A000F1F78091FB0180620E94D10283E592E024
:1006B0000197F1F78091FB0180620E94D102809145
:1006C000FB0180620E94D10284E08093FC018CE0F7
:1006D0000E94D10281E00E94D1028BE39FE1019749
:1006E000F1F782E08093FD0186E0DF91CF910C94D9
:1006F000D102643008F063E09091FF01691710F0B7
:100700006FEF690FE62FF0E0E451FE4F9489890FF7
:1007100080680C94D10241E00E947E0281E090E06A
:100720000895089580E090E00895009769F0FC0135
:1007300001900020E9F73197AF01481B590BBC012C
:100740008CEE91E00C942F0180E090E008950C94E1
:1007500095038F929F92AF92BF92CF92DF92EF92CA
:10076000FF92CF93DF93CDB7DEB7A1970FB6F89482
:10077000DEBF0FBECDBF6C01990FEE08FF08F7FE7C
:100780002AC041E06DE28CEE91E00E947E022227B9
:100790003327A9012C193D094E095F0919A2CE0181
:1007A00081967C019AE0892E912CA12CB12CCA0152
:1007B000B901A50194010E94C406605DF70162932E
:1007C0007F01211531054105510589F7CF010E94AF
:1007D000950301961DC0A701960119A2CE0181962D
:1007E0007C018AE0882E912CA12CB12CCA01B90180
:1007F000A50194010E94C406605DF70162937F0128
:10080000211531054105510589F7CF010E94950356
:10081000A1960FB6F894DEBF0FBECDBFDF91CF918A
:10082000FF90EF90DF90CF90BF90AF909F908F9010
:1008300008950E94EC061F920F920FB60F9211249A
:100840002F933F938F939F93AF93BF9380914701D3
:1008500090914801A0914901B0914A01309146011F
:1008600023E0230F2D3720F40196A11DB11D05C0F3
:1008700026E8230F0296A11DB11D20934601809307
:10088000470190934801A0934901B0934A01809198
:100890004B0190914C01A0914D01B0914E010196F8
:1008A000A11DB11D80934B0190934C01A0934D016C
:1008B000B0934E01BF91AF919F918F913F912F9136
:1008C0000F900FBE0F901F9018951F920F920FB6AA
:1008D0000F9211242F933F934F935F936F937F93C6
:1008E0008F939F93AF93BF93EF93FF938FE491E028
:1008F0000E94A001FF91EF91BF91AF919F918F91C5
:100900007F916F915F914F913F912F910F900FBE0B
:100910000F901F9018951F920F920FB60F921124EF
:100920002F938F939F93EF93FF93E0915F01F0914B
:1009300060018081E0916501F091660182FD12C045
:100940009081809168018F5F8F7320916901821778
:1009500051F0E0916801F0E0E15BFE4F958F8093EC
:10096000680101C08081FF91EF919F918F912F913C
:100970000F900FBE0F901F901895EFE4F1E01382D7
:10098000128288EE93E0A0E0B0E084839583A68392
:10099000B78388E091E09183808385EC90E0958730
:1009A000848784EC90E09787868780EC90E0918B39
:1009B000808B81EC90E0938B828B82EC90E0958B26
:1009C000848B86EC90E0978B868B118E128E138E23
:1009D000148EECEEF1E0138212828AE191E09183B1
:1009E000808389E084838FEF858388E0868387E036
:1009F000878386E0808785E0818784E0828713860D
:100A0000148615861686178681E00C94D702789492
:100A100084B5826084BD84B5816084BD85B5826003
:100A200085BD85B5816085BD80916E0081608093B4
:100A30006E0010928100809181008260809381001D
:100A4000809181008160809381008091800081602D
:100A5000809380008091B10084608093B100809188
:100A6000B00081608093B00080917A0084608093B0
:100A70007A0080917A00826080937A0080917A0077
:100A8000816080937A0080917A00806880937A00F8
:100A90001092C100E0915F01F091600182E08083DB
:100AA000E0915B01F0915C011082E0915D01F091B9
:100AB0005E018FEC808310926701E0916301F091F9
:100AC000640186E08083E0916101F09162018081A0
:100AD00080618083E0916101F09162018081886092
:100AE0008083E0916101F091620180818068808360
:100AF000E0916101F091620180818F7D808382E0CD
:100B00000E94D70282E291E00E94A70361E080E0A8
:100B10000E94790385E291E00E94A703CAE0D0E039
:100B200000E110E08FE491E00E948A011816190696
:100B300044F48FE491E00E94680190934501809312
:100B400044012091440130914501C9010197039767
:100B500020F43093030120930201809102019091CF
:100B600003018130910589F4809100019091010188
:100B700001979093010180930001892B09F059C0DE
:100B8000109301010093000154C08230910591F54A
:100B90008EE00E94F3006C01909343018093420128
:100BA0008FE00E94F3007C0190934101809340010B
:100BB00080E10E94F30020910001309101018C1529
:100BC0009D051CF08E159F051CF42B30310589F115
:100BD000C816D90634F4E816F9061CF42430310599
:100BE00041F1215031093093010120930001232B61
:100BF00039F21FC083309105E1F42132310509F04B
:100C0000B3CF20910001309101012A3031052CF041
:100C1000D0930101C093000107C02830310524F4AE
:100C200090930101809300011092450110924401BC
:100C30009BCF0E940A014B015C0184E6C82ED12C97
:100C4000E12CF12C0E940A01DC01CB0188199909E1
:100C5000AA09BB09883E9340A105B10598F321E09C
:100C6000C21AD108E108F10888EE880E83E0981EC8
:100C7000A11CB11CC114D104E104F10419F7809145
:100C80000001909101018A309105ECF060E082E072
:100C90000E94790388E291E00E94A70380910001FD
:100CA0009091010109970E94A90361E082E00E94EE
:100CB000790380E391E00E94A70380910001909165
:100CC000010109975CC09C0128503109223031058F
:100CD000E8F460E082E00E94790388E391E00E94FA
:100CE000A703809100019091010107970E94A90339
:100CF00061E082E00E94790388E391E00E94A7030B
:100D00008091000190910101079739C0039760E03D
:100D10000597E0F482E00E94790380E391E00E946D
:100D2000A703809100019091010102970E94A903FD
:100D300061E082E00E94790388E291E00E94A703CB
:100D40008091000190910101029719C082E00E94F8
:100D5000790388E391E00E94A703809100019091BC
:100D600001010E94A90361E082E00E94790388E307
:100D700091E00E94A70380910001909101010E94DF
:100D8000A9030E943102CECEA1E21A2EAA1BBB1BE0
:100D9000FD010DC0AA1FBB1FEE1FFF1FA217B30747
:100DA000E407F50720F0A21BB30BE40BF50B661F5D
:100DB000771F881F991F1A9469F760957095809521
:100DC00090959B01AC01BD01CF010895EE0FFF1F6F
:100DD0000590F491E02D099481E090E0F8940C9452
:060DE000F106F894FFCFBC
:100DE6001100010000000000C2012F0159010F028D
:100DF6008A0168017C01000000008B032F01920329
:100E06009103413A00423A00477265656E2D200013
:100E16005265642D2020200059656C6C6F772D007B
:00000001FF
