:100000000C9462000C9485030C945E030C948A009B
:100010000C948A000C948A000C948A000C948A0038
:100020000C948A000C948A000C948A000C948A0028
:100030000C948A000C948A000C948A000C948A0018
:100040000C9414030C948A000C94D2030C94AC030B
:100050000C948A000C948A000C948A000C948A00F8
:100060000C9421040C948A00000000002400270056
:100070002A0000000000250028002B0000000000DE
:1000800023002600290004040404040404040202DA
:100090000202020203030303030301020408102007
:1000A0004080010204081020010204081020000012
:1000B0000008000201000003040700000000000027
:1000C0000000740C11241FBECFEFD8E0DEBFCDBFFF
:1000D00011E0A0E0B1E0E2EDFAE102C005900D927E
:1000E000AE3EB107D9F723E0AEEEB1E001C01D92FC
:1000F000A83DB207E1F710E0C2E6D0E004C02197C6
:10010000FE010E944C0DC136D107C9F70E94CB08F1
:100110000C94670D0C940000089508950895CF92F3
:10012000DF92EF92FF920F931F93CF93DF936C01B7
:100130007A018B01C0E0D0E0CE15DF0581F0D80157
:100140006D918D01D601ED91FC910190F081E02D32
:10015000C6010995892B11F02196EECF7E01C701CA
:10016000DF91CF911F910F91FF90EF90DF90CF9093
:100170000895FC01538D448D252F30E0842F90E0AD
:10018000821B930B541710F0CF9608950197089592
:10019000FC01918D828D981761F0828DDF01A80F8F
:1001A000B11D5D968C91928D9F5F9F73928F90E0B1
:1001B00008958FEF9FEF0895FC01918D828D981720
:1001C00031F0828DE80FF11D858D90E008958FEF5D
:1001D0009FEF0895FC01918D228D892F90E0805C26
:1001E0009F4F821B91098F739927089584EB92E0AA
:1001F0000E94EA0021E0892B09F420E0822F089573
:10020000FC01848DDF01A80FB11DA35ABF4F2C91B3
:10021000848D90E001968F739927848FA689B78982
:100220002C93A089B1898C91837080648C93938D79
:10023000848D981306C00288F389E02D80818F7D1C
:1002400080830895EF92FF920F931F93CF93DF93D4
:10025000EC0181E0888F9B8D8C8D981305C0E88917
:10026000F989808185FD26C0F62E0B8D10E00F5F89
:100270001F4F0F731127E02E8C8DE8120CC00FB6A4
:1002800007FCFACFE889F989808185FFF5CFCE0197
:100290000E940001F1CF8B8DFE01E80FF11DE35AA2
:1002A000FF4FF0829FB7F8940B8FEA89FB8980811A
:1002B00080620AC09FB7F894EE89FF896083E8895D
:1002C000F98980818370806480839FBF81E090E0A2
:1002D000DF91CF911F910F91FF90EF900895CF93F1
:1002E000DF93EC01888D8823C9F0EA89FB8980813E
:1002F00085FD05C0A889B9898C9186FD0FC00FB610
:1003000007FCF5CF808185FFF2CFA889B9898C9150
:1003100085FFEDCFCE010E940001E7CFDF91CF91A5
:10032000089580E090E0892B29F00E94F600811169
:100330000C940000089585ED8093BC008091BC0072
:1003400084FDFCCF10929D02089540912E02262F2D
:1003500030E0240F311D21323105DCF420919D0263
:100360002430C9F4FC0180E090E0861758F4309105
:100370002E022191DC01A25FBD4FA30FB11D2C9372
:100380000196F3CF80912E02680F60932E0280E0D9
:10039000089581E0089582E008950895E091A10212
:1003A0008091A002E81730F4F0E0E251FE4F808126
:1003B00090E008958FEF9FEF08959091A1028091B2
:1003C000A002981750F4E92FF0E0E251FE4F20818F
:1003D00030E09F5F9093A10202C02FEF3FEFC90171
:1003E00008958091A00290E02091A102821B9109C2
:1003F0000895CF92DF92EF92FF920F931F93CF93C6
:10040000DF937C01CB018A0120917502222389F0C0
:10041000EB016B01C40ED51ECC15DD0569F06991A9
:10042000D701ED91FC910190F081E02DC701099574
:10043000F3CF642F0E94A501C801DF91CF911F91D6
:100440000F91FF90EF90DF90CF900895CF93DF93BF
:100450001F92CDB7DEB76983209175022223D1F0B8
:1004600020919E02203240F021E030E0FC013383F5
:10047000228380E090E015C080919F02E82FF0E099
:10048000EA58FD4F998190838F5F80939F028093FC
:100490009E0205C061E0CE0101960E94A50181E0A7
:1004A00090E00F90DF91CF910895CF93FC01C4812C
:1004B00021E020937502C093960210929F02109241
:1004C0009E028385682B81E593E00E94260290912D
:1004D0009E02913208F045C080919D028111FCCFAF
:1004E00082E080939D0281E080939C028FEF809355
:1004F00074021092730290937202A6E7B2E0E2E5F2
:10050000F2E080E0981721F02D9121938F5FFACFD0
:100510001092510280915102CC0FC82BC09351020E
:1005200080919B02813061F410929B028091510274
:100530008093BB008091BC0083FDF8CF85EC01C0A7
:1005400085EE8093BC0080919D028230E1F3809122
:1005500074028F3F31F080917402803211F08091EB
:10056000740210929F0210929E0210927502CF9117
:1005700008950F931F93CF938C01C62F0E945502AD
:100580006C2F6460C8010E9455026C2F6B7FC801FC
:100590000E94550283EC90E00197F1F7CF911F91F3
:1005A0000F910895089580E090E0089580910901E9
:1005B00090910A01039729F461E284EB92E00C9494
:1005C00022010895862F0C949906862F642F0C948F
:1005D000C206862F642F0C94F1060E94520D3FB77D
:1005E000F8948091AC029091AD02A091AE02B091CE
:1005F000AF0226B5A89B05C02F3F19F00196A11D9B
:10060000B11D3FBFBA2FA92F982F8827820F911DA8
:10061000A11DB11DBC01CD0142E0660F771F881FEF
:10062000991F4A95D1F708951F920F920FB60F9216
:1006300011242F933F938F939F93AF93BF938091F8
:10064000B0029091B102A091B202B091B302309188
:10065000AB0223E0230F2D3720F40196A11DB11D1D
:1006600005C026E8230F0296A11DB11D2093AB0201
:100670008093B0029093B102A093B202B093B30200
:100680008091AC029091AD02A091AE02B091AF0208
:100690000196A11DB11D8093AC029093AD02A09371
:1006A000AE02B093AF02BF91AF919F918F913F91F6
:1006B0002F910F900FBE0F901F9018951F920F92C1
:1006C0000FB60F9211242F933F934F935F936F9325
:1006D0007F938F939F93AF93BF93EF93FF93E0919B
:1006E0000201F09103010995FF91EF91BF91AF9144
:1006F0009F918F917F916F915F914F913F912F913A
:100700000F900FBE0F901F9018951F920F920FB66B
:100710000F9211242F933F934F935F936F937F9387
:100720008F939F93AF93BF93EF93FF93E09100015B
:10073000F09101010995FF91EF91BF91AF919F91C8
:100740008F917F916F915F914F913F912F910F907A
:100750000FBE0F901F9018951F920F920FB60F9219
:1007600011242F933F934F935F936F937F938F93B6
:100770009F93AF93BF93EF93FF9384EB92E00E941C
:100780000001FF91EF91BF91AF919F918F917F9168
:100790006F915F914F913F912F910F900FBE0F90EE
:1007A0001F9018951F920F920FB60F9211242F933E
:1007B0008F939F93EF93FF93E091C402F091C50252
:1007C0008081E091CA02F091CB0282FD12C090813B
:1007D0008091CD028F5F8F732091CE02821751F0EE
:1007E000E091CD02F0E0EC54FD4F958F8093CD0267
:1007F00001C08081FF91EF919F918F912F910F9078
:100800000FBE0F901F9018950F931F93CF93DF93F8
:100810008C01C62FD42F607F642B0E94B90280E127
:10082000C89FB00111246D2BC801DF91CF911F919A
:100830000F910C94B90241E00E94040481E090E021
:1008400008951F920F920FB60F9211242F933F938A
:100850004F935F936F937F938F939F93AF93BF93C8
:10086000EF93FF938091B900887F803609F49CC094
:1008700068F5883209F45BC090F4803109F454C003
:1008800038F4882309F4F6C0883009F44DC0F6C066
:10089000883109F44CC0803209F45DC0EFC0803467
:1008A00009F468C048F4803309F455C0883309F06E
:1008B000E5C080937402D8C0803509F44FC08835F4
:1008C00009F45DC0883409F0D9C0D6C0883909F46C
:1008D000C7C0A8F4883709F467C038F4883609F42B
:1008E00063C0803709F460C0C9C0883809F4B8C053
:1008F000803909F45FC0803809F0C0C05BC0803B1C
:1009000009F486C038F4803A09F466C0883A09F4DC
:100910007FC0B4C0803C09F4A7C0883C09F4A4C0DF
:10092000883B09F48AC0AAC08091510210C09091FE
:10093000730280917202981770F5E091730281E062
:100940008E0F80937302F0E0EE5AFD4F808180930A
:10095000BB0085EC86C0809374028EC0E091730268
:1009600081E08E0F809373028091BB00F0E0EE5A1D
:10097000FD4F808390917302809172026EC0E0916E
:10098000730281E08E0F809373028091BB00F0E0D0
:10099000EE5AFD4F808380919C0281116DC081E0F1
:1009A00080939B0284EA61C083E080939D02109251
:1009B0005002CFCF80915002803208F051C0E091B8
:1009C000500281E08E0F809350028091BB00F0E0D6
:1009D000E05DFD4F8083BDCF85EC8093BC0010921D
:1009E0009D0280915002803230F4E0915002F0E09C
:1009F000E05DFD4F10826091500270E0E09197023F
:100A0000F091980280E392E009951092500236C06E
:100A100084E080939D0210922F0210922E02E091AA
:100A20009902F0919A02099580912E02811105C0D8
:100A300081E080932E0210920E02E0912F0281E05D
:100A40008E0F80932F02F0E0E25FFD4F8081809354
:100A5000BB0090912F0280912E02981708F479CF55
:100A600085E88093BC000AC085EC8093BC0010929E
:100A70009D0204C0109274020E949B01FF91EF91AD
:100A8000BF91AF919F918F917F916F915F914F91A6
:100A90003F912F910F900FBE0F901F90189596E0E9
:100AA000899FD0011124A35ABC4F90967C936E93DA
:100AB0005F9791E091969C9391979091C903E091F3
:100AC000CA03F091CB03992339F0309751F081118B
:100AD00008C08091790304C0309719F05C968C911E
:100AE00009940895CF92DF92EF92FF920F931F9394
:100AF00096E0899FF0011124E35AFC4F11A2278D43
:100B000030A12130310539F158F02230310509F496
:100B100047C02330310509F04FC060E070E044C0A9
:100B2000662309F449C061E070E00E944F052FB7C9
:100B3000F8948091B0029091B102A091B202B0916C
:100B4000B3022FBF8093B5039093B603A093B7036E
:100B5000B093B80331C09FB7F894C090B002D09062
:100B6000B102E090B202F090B3029FBF0091B503D2
:100B70001091B6032091B7033091B803C01AD10A7F
:100B8000E20AF30A0091C7031091C80320E030E0A5
:100B90000C151D052E053F0518F462E070E004C039
:100BA00061110AC063E070E01F910F91FF90EF9018
:100BB000DF90CF900C944F051F910F91FF90EF9015
:100BC000DF90CF900895833081F028F4813099F040
:100BD0008230A1F008958730A9F08830B9F08430D0
:100BE000D1F4809180008F7D03C0809180008F7749
:100BF00080938000089584B58F7702C084B58F7D7F
:100C000084BD08958091B0008F7703C08091B000BB
:100C10008F7D8093B0000895009769F0FC010190EA
:100C20000020E9F73197AF01481B590BBC018CEC50
:100C300093E00C948F0080E090E00895CF93DF93D1
:100C4000CDB7DEB728970FB6F894DEBF0FBECDBF85
:100C500098E0EEE1F1E0DE01119601900D929A9597
:100C6000E1F79091D403961710F46FEF690FFE012E
:100C70003196E60FF11DE60FF11D6081680F606887
:100C800040E08CEC93E028960FB6F894DEBF0FBEE0
:100C9000CDBFDF91CF910C9404048F929F92AF92BD
:100CA000BF920F931F93CF93DF93CDB7DEB7A1977A
:100CB0000FB6F894DEBF0FBECDBF19A2423008F4C4
:100CC0004AE08E010F5D1F4F842E912CA12CB12C78
:100CD000A50194010E942A0DE62FB901CA01015015
:100CE0001109EA3014F4E05D01C0E95CD801EC932D
:100CF000232B242B252B61F7C8010E940C06A196FB
:100D00000FB6F894DEBF0FBECDBFDF91CF911F911C
:100D10000F91BF90AF909F908F90089541E0682F02
:100D20008CEC93E00E94040481E090E008950C9420
:100D30000C06CF93DF93282F30E0F901E255FF4FE7
:100D40008491F901E656FF4FD491F901EA57FF4F1C
:100D5000C491CC2391F081110E94E305EC2FF0E0C7
:100D6000EE0FFF1FE458FF4FA591B491EC91ED23D6
:100D700081E090E021F480E002C080E090E0DF912B
:100D8000CF9108951F93CF93DF93282F30E0F9017F
:100D9000E255FF4F8491F901E656FF4FD491F901D6
:100DA000EA57FF4FC491CC23C1F0162F81110E9446
:100DB000E305EC2FF0E0EE0FFF1FEE58FF4FA5917B
:100DC000B4919FB7F894111104C08C91D095D82399
:100DD00002C0EC91DE2BDC939FBFDF91CF911F917E
:100DE0000895CF93DF9390E0FC01E656FF4F2491E6
:100DF000FC01EA57FF4F8491882361F190E0880F4E
:100E0000991FFC01E859FF4FC591D491FC01EE58A0
:100E1000FF4FA591B491611109C09FB7F8948881E3
:100E2000209582238883EC912E230BC0623061F4DD
:100E30009FB7F8948881322F309583238883EC9173
:100E40002E2B2C939FBF06C08FB7F894E8812E2BD2
:100E500028838FBFDF91CF9108952F923F924F92B9
:100E60005F926F927F928F929F92AF92BF92CF923A
:100E7000DF92EF92FF920F931F93CF93DF93222481
:100E80002394812C912C5401839466246A94762CAB
:100E900066E0362E2092C9038FB7F8944091B002D5
:100EA0005091B1026091B2027091B3028FBF8091F4
:100EB000B9039091BA03A091BB03B091BC03481B46
:100EC000590B6A0B7B0B8091C5039091C603A0E080
:100ED000B0E084179507A607B707E0F6C0E0809159
:100EE000C303C81710F0512C40C0E091BF03F0912C
:100EF000C003EC0FF11D62E080810E94F106CF5F1C
:100F0000EECFC42DD0E0E091BF03F091C003EC0F11
:100F1000FD1F80810E9499062496CC0FDD1FC35AC5
:100F2000DC4F892B09F04BC0888199818C299D2940
:100F30009983888343948091C303481610F3E0910A
:100F4000C103F091C203E00FF11F61E080810E94B4
:100F5000C2068091C1039091C203FC01E00FF11F12
:100F600060E080810E94F10653948091C40358167A
:100F700058F5052D10E0E091C103F091C203E00F98
:100F8000F11F61E080810E94F106E091C103F091C0
:100F9000C203E00FF11F60E080810E94C206D5010C
:100FA000C401052C04C0880F991FAA1FBB1F0A94F7
:100FB000D2F76C017C01E094F094412CBCCF888185
:100FC00099818E219F21B4CFCDE5D3E0FE01878D9D
:100FD00090A1892B21F4148E768E658E11A23696FF
:100FE00023E0E939F20799F710E08091C30318175D
:100FF00070F500E0E12EF12CC701880F991FFC016C
:10100000EB59FC4F7F012091C4030217F0F4F70164
:1010100040815181002E02C0569547950A94E2F70F
:10102000642F6170129F90011124200F311DEDE596
:10103000F3E080E0A58DB68D2A173B0709F467C061
:101040008F5F36968A30B1F745C01F5FCECF80E004
:1010500099A1911181E02696F3E0C939DF07C1F724
:101060009FB7F8944091B0025091B1026091B202E2
:101070007091B3029FBF4093B9035093BA0360933A
:10108000BB037093BC03882309F404CF80917E03D3
:10109000882309F4FFCE80917C0390917D03019712
:1010A00009F0F8CE80917903882309F4F3CEDF911B
:1010B000CF911F910F91FF90EF90DF90CF90BF9055
:1010C000AF909F908F907F906F905F904F903F90E8
:1010D0002F90089540FF1DC0EDE5F3E080E090E023
:1010E000448D411118C0E091BD03F091BE03E20FA1
:1010F000F31F7081389EA001399E500D1124FA0112
:10110000E35AFC4F748F368F258F10A2178E0E94E2
:1011100072050F5F78CF019636968A30910501F7F8
:10112000F8CF8F929F92AF92BF92CF92DF92EF92C1
:10113000FF926B017C010E94EF024B015C01C11424
:10114000D104E104F104F1F00E94EF02DC01CB01D3
:1011500088199909AA09BB09883E9340A105B105E0
:1011600070F321E0C21AD108E108F10888EE880E78
:1011700083E0981EA11CB11CC114D104E104F10448
:1011800019F7DDCFFF90EF90DF90CF90BF90AF9039
:101190009F908F900895789484B5826084BD84B5C3
:1011A000816084BD85B5826085BD85B5816085BD62
:1011B00080916E00816080936E001092810080911A
:1011C00081008260809381008091810081608093A2
:1011D0008100809180008160809380008091B100C7
:1011E00084608093B1008091B00081608093B000F2
:1011F00080917A00846080937A0080917A00826086
:1012000080937A0080917A00816080937A00809147
:101210007A00806880937A001092C10061E08CE0CF
:101220000E94F10661E08DE00E94F10660E08BE033
:101230000E94F10660E08AE00E94F10660E089E029
:101240000E94F10660E088E00E94F10660E082E022
:101250000E94F10686ED92E09093010180930001D7
:1012600080916900836080936900E89AE091C402EC
:10127000F091C50282E08083E091C002F091C1024A
:101280001082E091C202F091C3028FEC8083109231
:10129000CC02E091C802F091C90286E08083E0911F
:1012A000C602F091C702808180618083E091C6020E
:1012B000F091C702808188608083E091C602F0913E
:1012C000C702808180688083E091C602F091C702E6
:1012D00080818F7D80831092A1021092A0021092D3
:1012E0009F0210929E0210929D0281E080939C02C8
:1012F00010929B0261E082E10E94C20661E083E1FC
:101300000E94C2068091B9008E7F8093B9008091BF
:10131000B9008D7F8093B90088E48093B80085E49C
:101320008093BC008CE890E090939A02809399029D
:101330008DE890E090939802809397021092D103E9
:101340008091D603823018F098E09093D103809377
:10135000D40362E370E080E090E00E949108609125
:10136000D7038CEC93E00E94550268EE73E080E0B6
:1013700090E00E94910860E38CEC93E00E94B90237
:10138000CBE4D6E4CE010197F1F760E38CEC93E077
:101390000E94B9022197F1F760E38CEC93E00E9480
:1013A000B90283E592E00197F1F760E28CEC93E0FB
:1013B0000E94B9026091D103606240E08CEC93E03E
:1013C0000E94040484E08093D20340E06CE08CEC43
:1013D00093E00E94040440E061E08CEC93E00E9402
:1013E0000404CBE3DFE1CE010197F1F782E08093C3
:1013F000D30340E066E08CEC93E00E94040440E0FC
:1014000062E08CEC93E00E9404042197F1F780E6FF
:1014100091E00E94970660E088E00E941E06C0905E
:101420000901D0900A010D2C000CEE08FF08F7FE10
:101430000CC08DE20E948E0666277727CB016C19BF
:101440007D098E099F094AE003C04AE0C701B60141
:101450000E944D06C1E0D0E01092AA021092A902AB
:101460008BE00E949906892B09F4FAC161E080E0C3
:101470000E941E061092A8021092A7028091A70255
:101480009091A80204970CF042C10E942D0783326C
:1014900039F461E080E00E941E0689E691E01BC1FC
:1014A0008A3209F01FC161E08CE00E94C20661E04F
:1014B0008DE00E94C20662E370E080E090E00E944E
:1014C000910860E08CE00E94C20660E08DE00E941E
:1014D000C20661E080E00E941E0687E791E00E945C
:1014E000970664E670E080E090E00E94910861E079
:1014F00080E00E941E068BEC91E00E94970661E05E
:1015000080E00E941E061092A8021092A70280910D
:10151000A7029091A802049764F50E942D078332D8
:10152000B9F461E080E00E941E0689E691E00E9425
:10153000970664E670E080E090E00E94910861E028
:1015400080E00E941E068BEC91E00E94970688C105
:101550000091A7021091A802F801EE55FD4F80837B
:101560000E948E060F5F1F4F1093A8020093A702E0
:10157000CECF64E071E082EA92E00E94570D61E014
:10158000892B09F0A3C080E00E941E0688E891E044
:101590000E94970664E670E080E090E00E94910867
:1015A00061E080E00E941E068BEC91E00E949706AD
:1015B00061E080E00E941E061092A8021092A7022D
:1015C0008091A7029091A80204970CF072C00E942B
:1015D0002D07833209F45DCF0091A7021091A80274
:1015E000F801EE55FD4F80830E948E0661E00330C6
:1015F000110509F04AC08CE00E94C20661E08DE04E
:101600000E94C20662E370E080E090E00E949108D0
:1016100060E08CE00E94C20660E08DE00E94C2069D
:1016200062E370E080E090E00E94910861E08CE06D
:101630000E94C20661E08DE00E94C20662E370E093
:1016400080E090E00E94910860E08CE00E94C20679
:1016500060E08DE00E94C20662E370E080E090E00E
:101660000E94910861E08CE00E94C20661E08DE07A
:101670000E94C20662E370E080E090E00E94910860
:1016800060E08CE00E94C20609C08DE00E94C206A4
:1016900062E370E080E090E00E94910860E08DE0FD
:1016A0000E94C2060F5F1F4F1093A8020093A7026B
:1016B00087CF62EA72E084E091E00E94600D61E011
:1016C00080E00E941E0687E991E005C080E00E944C
:1016D0001E0688EA91E00E94970662E370E080E0CF
:1016E00090E02BCFE091A702F091A802EE55FD4FBC
:1016F000808387EB91E00E9497068091A7029091EA
:10170000A80201969093A8028093A702B7CE62EA3E
:1017100072E084E091E00E94570D61E0892B09F0AE
:1017200050C080E00E941E0689EB91E00E9497065F
:1017300061E08CE00E94C20662E370E080E090E02D
:101740000E94910860E08CE00E94C20662E370E0B3
:1017500080E090E00E94910861E08CE00E94C20667
:1017600062E370E080E090E00E94910860E08CE02D
:101770000E94C20662E370E080E090E00E9491085F
:1017800061E08CE00E94C20662E370E080E090E0DD
:101790000E94910860E08CE00E94C20662E370E063
:1017A00080E090E00E94910861E080E00E941E06C7
:1017B0008AEC91E00E949706D093AA02C093A902F6
:1017C0004FC080E00E941E068CED91E00E949706BB
:1017D00061E08DE00E94C20662E370E080E090E08C
:1017E0000E94910860E08DE00E94C20662E370E012
:1017F00080E090E00E94910861E08DE00E94C206C6
:1018000062E370E080E090E00E94910860E08DE08B
:101810000E94C20662E370E080E090E00E949108BE
:1018200061E08DE00E94C20662E370E080E090E03B
:101830000E94910860E08DE00E94C20662E370E0C1
:1018400080E090E00E94910861E080E00E941E0626
:101850008AEC91E00E9497061092AA021092A902C7
:101860008091A9029091AA02892BD9F18AE00E9465
:1018700099067C0189E00E949906880F991FE80E5D
:10188000F91E88E00E9499066C01CC0CDD1C8C0DC1
:101890009D1D6C01CE0CDF1CD0920A01C092090183
:1018A00060E088E00E941E060D2C000CEE08FF0888
:1018B000F7FE0CC08DE20E948E0666277727CB01CB
:1018C0006C197D098E099F094AE003C04AE0C701EF
:1018D000B6010E944D066091090184EB92E00E94DE
:1018E00022010E949101B8CD1092B7021092B60267
:1018F00088EE93E0A0E0B0E08093B8029093B90244
:10190000A093BA02B093BB022AE231E03093B50251
:101910002093B40225EC30E03093C1022093C00242
:1019200024EC30E03093C3022093C20220EC30E07C
:101930003093C5022093C40221EC30E03093C702FB
:101940002093C60222EC30E03093C9022093C802F3
:1019500026EC30E03093CB022093CA021092CD02E5
:101960001092CE021092CF021092D0021092540325
:10197000109253038093550390935603A0935703FB
:10198000B09358038CE391E09093520380935103FA
:101990001092CF031092CE0388E591E09093CD038F
:1019A0008093CC0380E28093D00380E18093D503C1
:1019B00082E08093D6031092D70310925F031092B7
:1019C000630310926203109264038EE491E090939B
:1019D0005E0380935D03EDE5F3E089E993E0148E07
:1019E00010A2178E11A236968E179F07C1F78EE0B0
:1019F00091E09093C0038093BF038BE091E09093BC
:101A0000C2038093C10384E08093C30383E0809387
:101A1000C40382E191E09093BE038093BD038AE00A
:101A200090E09093C6038093C50384EF91E0909378
:101A3000C8038093C7031092CB031092CA0310927D
:101A4000B9031092BA031092BB031092BC03109218
:101A5000C9030895A1E21A2EAA1BBB1BFD010DC0EC
:101A6000AA1FBB1FEE1FFF1FA217B307E407F5074E
:101A700020F0A21BB30BE40BF50B661F771F881F2A
:101A8000991F1A9469F760957095809590959B01C0
:101A9000AC01BD01CF010895EE0FFF1F0590F49139
:101AA000E02D099481E090E0F8940C94670DFB011F
:101AB000DC018D91019080190110D9F3990B0895E3
:101AC000FB01DC0101900D920020E1F70895F894EC
:021AD000FFCF46
:101AD2008E008E00323032310001000E0F100706E8
:101AE20005043132333435363738392A3023000091
:101AF2004000140054000000000022018F00B900D1
:101B02006F01EA00C800DC00000000002602F901B3
:101B1200D302CD01F101DD01CE0100000000E90296
:101B2200E502E202000000001B048F00D302D20291
:101B32005374617465203A200043616E63656C6C76
:101B4200696E672E2E2E00456E746572204D61738C
:101B52007465722050617300456E746572204E6523
:101B62007720506173730050617373776F726420D2
:101B72004368616E6765640057726F6E67205061DB
:101B82007373776F7264002A00526561647920660C
:101B92006F72206368616E6765002020202020201C
:101BA200202020202020202020202000496E766145
:0E1BB2006C69642050617373776F7264000079
:00000001FF
